:020000040000FA
:100000000C9458000C9480000C9480000C94800098
:100010000C9480000C9480000C9480000C94800060
:100020000C9480000C9480000C9480000C94800050
:100030000C9480000C9480000C9480000C94800040
:100040000C9499030C9480000C9480000C94800014
:100050000C9480000C9480000C9480000C94800020
:100060000C94E3030C94800000000000250028009D
:100070002B00040404040404040402020202020229
:10008000030303030303010204081020408001025C
:1000900004081020010204081020000000080002DB
:1000A000010000030407000000000000000002053A
:1000B00011241FBECFEFD8E0DEBFCDBF11E0A0E01E
:1000C000B1E0EAE2FCE002C005900D92AC32B1076B
:1000D000D9F722E0ACE2B1E001C01D92A730B2072F
:1000E000E1F710E0C8E5D0E004C02197FE010E94CE
:1000F0000D06C735D107C9F70E9422050C941306D7
:100100000C94000090E0FC01E656FF4F2491FC01A6
:10011000EA57FF4F3491FC01EE58FF4FE491EE2374
:10012000C9F0222339F0233001F1A8F4213019F16C
:10013000223029F1F0E0EE0FFF1FE859FF4FA591A3
:10014000B4918FB7F894EC91611126C030953E239D
:100150003C938FBF08952730A9F02830C9F0243090
:1001600049F7809180008F7D03C0809180008F7758
:1001700080938000DFCF84B58F7784BDDBCF84B5DB
:100180008F7DFBCF8091B0008F778093B000D2CF6E
:100190008091B0008F7DF9CF3E2BDACF3FB7F89436
:1001A0008091EB019091EC01A091ED01B091EE01F5
:1001B00026B5A89B05C02F3F19F00196A11DB11DC2
:1001C0003FBFBA2FA92F982F8827BC01CD01620FFE
:1001D000711D811D911D42E0660F771F881F991FB9
:1001E0004A95D1F708958F929F92AF92BF92CF9286
:1001F000DF92EF92FF924B015C010E94CE006B01F7
:100200007C010E94CE006C197D098E099F09683E11
:10021000734081059105A8F321E0821A9108A10895
:10022000B10888EEC80E83E0D81EE11CF11C8114D1
:100230009104A104B10429F7FF90EF90DF90CF90D3
:10024000BF90AF909F908F90089508950895AF92BA
:10025000BF92CF92DF92EF92FF920F931F93CF93B3
:10026000DF936C017B018B01040F151FEB015E0115
:10027000AE18BF08C017D10759F06991D601ED91AA
:10028000FC910190F081E02DC6010995892B79F749
:10029000C501DF91CF911F910F91FF90EF90DF90FB
:1002A000CF90BF90AF900895089520916D01260FD3
:1002B0003327331F21323105ECF42091B601FC01C4
:1002C00090E080E0243069F082E00895A0916D0113
:1002D0002191AC01435B5E4FA40FB52FB11D2C9350
:1002E0000196861798F380916D01680F60936D01F8
:1002F00080E0089581E008951092B60181E0809336
:10030000B5011092900161E082E10E94820061E0FB
:1003100083E10E948200E9EBF0E080818E7F8083A0
:1003200080818D7F808388E48093B80085E480930A
:10033000BC000895CF93DF9391E090934C01882304
:10034000B9F0C091B800D091BA008091BC008A7B0E
:100350008093BC0060E082E10E94820060E083E163
:100360000E9482000E947C01D093BA00C093B80022
:10037000DF91CF9108950895E091E5018091E40126
:10038000E81730F4F0E0E45DFE4F808190E00895DE
:100390008FEF9FEF08959091E5018091E4012FEF99
:1003A0003FEF981748F4E92FF0E0E45DFE4F20811D
:1003B00030E09F5F9093E501C90108958091E401C9
:1003C0009091E501891B990B0895CF92DF92EF92EE
:1003D000FF920F931F93CF93DF937C01CB018A0190
:1003E0002091BC01222389F0EB016B01C40ED51EC4
:1003F000CC15DD0569F06991D701ED91FC91019073
:10040000F081E02DC7010995F3CF642F0E945501BB
:10041000C801DF91CF911F910F91FF90EF90DF9076
:10042000CF900895CF93DF931F92CDB7DEB7698346
:100430002091BC012223F9F02091E201203258F0F2
:1004400021E030E0FC013383228390E080E00F90D4
:10045000DF91CF9108958091E301E82FF0E0E3541C
:10046000FE4F998190838F5F8093E3018093E20137
:1004700081E090E0ECCF61E0CE0101960E94550151
:10048000F7CFCF92DF92EF92FF920F931F93CF930C
:10049000DF93FC01C48121E02093BC01C093DD0106
:1004A0001092E3011092E2018385682B8FEE91E0B8
:1004B0000E941202D091E201D13208F092C00E9453
:1004C000CE006B017C018091B601811165C082E094
:1004D0008093B60181E08093B5018FEF8093B401E2
:1004E0001092B301D093B201ADEBB1E0E2E9F1E0DB
:1004F00080E0D81385C01092910180919101CC0FBA
:10050000C82BC093910180919001813009F07CC08B
:10051000109290010E94CE006B017C0180919101AC
:100520008093BB008091B8019091B901A091BA016C
:10053000B091BB01892B8A2B8B2B99F00E94CE00A6
:100540000091B8011091B9012091BA013091BB011D
:100550006C197D098E099F090617170728073907A7
:10056000E0F18091BC0083FDD9CF85EC8093BC0085
:100570000E94CE006B017C018091B601823009F4AB
:1005800045C08091B4018F3F61F18091B401803208
:1005900041F18091B40125C08091B8019091B901D9
:1005A000A091BA01B091BB01892B8A2B8B2B09F446
:1005B0008ACF0E94CE000091B8011091B90120911C
:1005C000BA013091BB016C197D098E099F0906178C
:1005D00017072807390708F076CF8091B7010E94E6
:1005E0009A011092E3011092E2011092BC01DF9196
:1005F000CF911F910F91FF90EF90DF90CF900895D2
:100600009D9191938F5F75CF85EEB0CF8091B801AA
:100610009091B901A091BA01B091BB01892B8A2BAD
:100620008B2B09F4A9CF0E94CE000091B801109144
:10063000B9012091BA013091BB016C197D098E0975
:100640009F09061717072807390708F095CFC5CF68
:1006500090E080E008950F931F93CF938C01C62FF5
:100660000E9441026C2F6460C8010E9441026C2FFD
:100670006B7FC8010E94410283EC90E00197F1F783
:10068000CF911F910F9108950F931F93CF93DF93F5
:100690008C01D62FC42F607F642B0E942B0380E136
:1006A000D89FB00111246C2BC801DF91CF911F910D
:1006B0000F910C942B0341E00E94440381E090E0F1
:1006C000089585ED8093BC008091B8019091B901A7
:1006D000A091BA01B091BB010796A11DB11D23E005
:1006E000B695A795979587952A95D1F72091BC0047
:1006F00024FD03C01092B60108954091B8015091B5
:10070000B9016091BA017091BB01452B462B472B73
:1007100069F30097A105B10541F02AE22A95F1F7A6
:1007200000C00197A109B109E1CF8091B7010C94F4
:100730009A011F920F920FB60F9211242F933F939D
:100740008F939F93AF93BF938091E7019091E801BE
:10075000A091E901B091EA013091E60123E0230F75
:100760002D3758F50196A11DB11D2093E601809308
:10077000E7019093E801A093E901B093EA01809129
:10078000EB019091EC01A091ED01B091EE01019689
:10079000A11DB11D8093EB019093EC01A093ED019D
:1007A000B093EE01BF91AF919F918F913F912F91A7
:1007B0000F900FBE0F901F90189526E8230F0296FA
:1007C000A11DB11DD2CF1F920F920FB60F9211240F
:1007D0002F933F934F935F936F937F938F939F9349
:1007E000AF93BF93EF93FF938091B900887F8036DA
:1007F00009F44AC0F0F5883209F4A7C018F5803131
:1008000009F49BC0B8F4882309F4F9C0883009F4CE
:1008100094C0FF91EF91BF91AF919F918F917F9184
:100820006F915F914F913F912F910F900FBE0F905D
:100830001F901895883109F488C0803251F7809351
:10084000B40114C0803409F49DC040F48033B9F37E
:100850008833F9F68093B40185ECB0C0803509F493
:1008600085C0883509F496C0883499F60E946103E2
:10087000D0CF883909F48CC038F5883729F050F486
:10088000883611F0803729F683E08093B601109204
:100890008F0157C0883809F47BC0803919F080383F
:1008A00009F0B7CF80918F01803208F071C0E091DC
:1008B0008F0181E08E0F80938F018091BB00F0E06B
:1008C000E159FE4F80833DC0803B39F0E0F4803A2F
:1008D00009F479C0883A09F09CCF84E08093B6018E
:1008E00010926E0110926D01E091E001F091E10132
:1008F000099580916D0181110FC081E080936D0198
:1009000010924D0109C0803C09F4A6CF883C09F43F
:10091000A3CF883B09F07DCFE0916E0181E08E0F7F
:1009200080936E01F0E0E35BFE4F80818093BB001B
:1009300090916E0180916D0129C080919101809309
:10094000BB0085EC8093BC0064CF9091B301809193
:10095000B201981758F5E091B30181E08E0F8093B2
:10096000B301F0E0EE56FE4F8081E9CFE091B30194
:1009700081E08E0F8093B3018091BB00F0E0EE56D2
:10098000FE4F80839091B3018091B2019817C8F215
:1009900085E8D8CFE091B30181E08E0F8093B30159
:1009A0008091BB00F0E0EE56FE4F80838091B50150
:1009B00081115CCF81E08093900184EA8093BC0038
:1009C0001092B60126CF85EC8093BC001092B60140
:1009D00080918F01803230F4E0918F01F0E0E15995
:1009E000FE4F108260918F0170E0E091DE01F09186
:1009F000DF018FE691E0099510928F010ACF1092E6
:100A0000B40134CFEFEEF1E01382128288EE93E06E
:100A1000A0E0B0E084839583A683B78384E091E06F
:100A200091838083EBEFF1E01382128286E191E003
:100A30009183808387E2848380E1818782E082875B
:100A400013860895789484B5826084BD84B58160EE
:100A500084BD85B5826085BD85B5816085BD809189
:100A60006E00816080936E00109281008091810001
:100A700082608093810080918100816080938100F9
:100A8000809180008160809380008091B1008460BB
:100A90008093B1008091B00081608093B00080911C
:100AA0007A00846080937A0080917A0082608093DB
:100AB0007A0080917A00816080937A0080917A0038
:100AC000806880937A001092C1001092E501109224
:100AD000E4011092E3011092E2010E947C0185E2A0
:100AE00091E09093E1018093E00186E291E09093A0
:100AF000DF018093DE0110920002809105028230B6
:100B000018F098E0909300028093030262E370E093
:100B100080E090E00E94F300609106028BEF91E08C
:100B20000E94410268EE73E080E090E00E94F300D2
:100B300060E38BEF91E00E942B03CBE4D6E4CE017F
:100B40000197F1F760E38BEF91E00E942B0321976F
:100B5000F1F760E38BEF91E00E942B0383E592E0D5
:100B60000197F1F760E28BEF91E00E942B03609117
:100B70000002606240E08BEF91E00E94440384E059
:100B80008093010240E06CE08BEF91E00E9444030F
:100B900040E061E08BEF91E00E944403CBE3DFE1B2
:100BA000CE010197F1F782E08093020240E066E017
:100BB0008BEF91E00E94440340E062E08BEF91E014
:100BC0000E9444032197F1F788E08093060260E0D9
:100BD0008BEF91E00E944102CBE3DFE100E010E007
:100BE00040E061E08BEF91E00E944403CE01019769
:100BF000F1F74DE050E06EE171E08BEF91E00E9483
:100C0000270168EE73E080E090E00E94F300011598
:100C1000110531F30E940000E3CFEE0FFF1F059096
:100C2000F491E02D0994F894FFCF00000000120227
:100C3000E5012803BB01DE01CB01BC01000000007F
:100C40005B0327012803540148656C6C6F2C2077E7
:060C50006F726C642100CC
:107E0000112484B714BE81FFF0D085E080938100F7
:107E100082E08093C00088E18093C10086E0809377
:107E2000C20080E18093C4008EE0C9D0259A86E02C
:107E300020E33CEF91E0309385002093840096BBD3
:107E4000B09BFECF1D9AA8958150A9F7CC24DD24C4
:107E500088248394B5E0AB2EA1E19A2EF3E0BF2EE7
:107E6000A2D0813461F49FD0082FAFD0023811F036
:107E7000013811F484E001C083E08DD089C08234E0
:107E800011F484E103C0853419F485E0A6D080C0E4
:107E9000853579F488D0E82EFF2485D0082F10E0AE
:107EA000102F00270E291F29000F111F8ED06801E7
:107EB0006FC0863521F484E090D080E0DECF843638
:107EC00009F040C070D06FD0082F6DD080E0C81688
:107ED00080E7D80618F4F601B7BEE895C0E0D1E017
:107EE00062D089930C17E1F7F0E0CF16F0E7DF06D8
:107EF00018F0F601B7BEE89568D007B600FCFDCFD4
:107F0000A601A0E0B1E02C9130E011968C91119780
:107F100090E0982F8827822B932B1296FA010C0160
:107F200087BEE89511244E5F5F4FF1E0A038BF0790
:107F300051F7F601A7BEE89507B600FCFDCF97BE46
:107F4000E89526C08437B1F42ED02DD0F82E2BD052
:107F50003CD0F601EF2C8F010F5F1F4F84911BD097
:107F6000EA94F801C1F70894C11CD11CFA94CF0C13
:107F7000D11C0EC0853739F428D08EE10CD085E9AC
:107F80000AD08FE07ACF813511F488E018D01DD067
:107F900080E101D065CF982F8091C00085FFFCCF94
:107FA0009093C60008958091C00087FFFCCF809118
:107FB000C00084FD01C0A8958091C6000895E0E648
:107FC000F0E098E1908380830895EDDF803219F02E
:107FD00088E0F5DFFFCF84E1DECF1F93182FE3DFCA
:107FE0001150E9F7F2DF1F91089580E0E8DFEE27F6
:047FF000FF270994CA
:027FFE00040479
:00000001FF
